:060000005DC0FECFFDCF44
:10000600FCCFFBCFFACFF9CFF8CFF7CFF6CFF5CFAE
:10001600F4CFF3CFF2CFF1CFF0CFEFCFEECFEDCFDE
:100026004C494E484B49454E4D43552E564E00546D
:10003600656D70433D252E31662022430000000089
:10004600A04000401C4600401C46331395433393A2
:1000560088433393BA4300EB0A470040094480C003
:100066002D4E414E000001002D4E414E00494E4698
:1000760000000F0060012600040083014400040014
:100086008701480004008B014C0004008F015000DA
:1000960004009B01540004009F0158000400A301C2
:1000A6005C000400A70160000200B30164000100C7
:1000B600B7016C000000F894EE27ECBBF1E0FBBF43
:1000C600EBBFE5BFF8E1F1BDE1BD8DE0A2E0BB27E6
:1000D600ED938A95E9F780E094E0A0E6ED93019729
:1000E600E9F7E8E7F0E085919591009761F0A59131
:1000F600B59105901590BF01F00105900D920197FD
:10010600E1F7FB01F0CFEFE5EDBFE4E0EEBFC0E6BF
:10011600D1E00DC0E881E064E7B98BE18A95F1F79B
:10012600369A349BFECF349AE4B1F5B1BFC1E0E014
:10013600E8BBE7BBE5BBE4BBE2BBE1BBE3BFE2BFB9
:10014600EFBDEEBDEDBDECBDE7BDE6BDEBBDEABD69
:10015600E9BDE8BDE2BDE5BDE4BDE3BDE5BFE9BF80
:10016600EBB9E8E0EAB9E6E8E0BDE0E0E0BDE3E3EC
:10017600E9B9E0E8E8B9E0E0E0BFE0E4E7B9E3E8E0
:10018600E6B9E0E0EDB9E6BFE0E1EA9368D12FD049
:10019600E4D5E3D527D1E0E6F1E0E2D551D1E9D0C7
:1001A600E0936F01F0937001609371017093720197
:1001B600E3E7F1E0D5D5E5E3F0E0D2D5E0916F01D4
:1001C600F091700160917101709172018FD984E094
:1001D600F4D32896C2D5E1E0EA9304D1E3E7F1E04F
:1001E600BFD52ED1E8EEF3E0BED5D9CFFFCFE09153
:1001F600A701F091A8016091A9017091AA01A091AF
:10020600A301B091A4018091A5019091A601ADD55D
:100216003AD47F936F93FF93EF93E0919B01F09114
:100226009C0160919D0170919E01A2D57F936F9371
:10023600FF93EF93E0919F01F091A0016091A101DE
:100246007091A20195D5AF91BF918F919F9196D54F
:10025600AF91BF918F919F9165D8E093AB01F093D9
:10026600AC016093AD017093AE0118D7DF01CB01ED
:10027600E0918F01F091900160919101709192014E
:1002860074D565D4A0918B01B0918C0180918D01BC
:1002960090918E01F9D7E093AF01F093B00160938E
:1002A600B1017093B20108956CD557D533DF662737
:1002B600772760D76DD5E0E0F0E060E874E432D8E7
:1002C600A0918301B091840180918501909186016E
:1002D600DBD7E0939301F0939401609395017093BB
:1002E6009601A0918701B091880180918901909132
:1002F6008A01CAD77F936F93FF93EF93A0919301DF
:10030600B09194018091950190919601E0918301BD
:10031600F091840160918501709186015ED7AF915D
:10032600BF918F919F91FED7E0939701F09398012B
:100336006093990170939A01E091AF01F091B00139
:100346006091B1017091B201A0919701B0919801AD
:100356008091990190919A0108D595D3A091AB010E
:10036600B091AC018091AD019091AE01DBD713D570
:1003760088C307D599DF0CD5E3E3F3E968E873E4AE
:10038600FDD409D57EC3E881E07111F0979A01C0CA
:100396009798E881E07211F0969A01C09698E881E4
:1003A600E07411F0959A01C09598E881E07811F013
:1003B600C79A01C0C79885E08A95F1F7C09A8DE083
:1003C6008A95F1F7C0988DE08A95F1F76FC0E881BC
:1003D600E4D4E881E295E883E881DFD485E88A956C
:1003E600F1F764C0E881DBD4ED54FE4FE081A981CA
:1003F600EA0FD7D45980488022960895E2E0D1D4F6
:10040600E3E0F0E0B0D4ECE0CCD4E1E0CAD4E3E041
:10041600F0E0A9D4E0E04E2E5E2E0895A881AA3021
:1004260011F0571438F099D443944A92DBDFA8812F
:10043600AA30E1F15394C29AE881B3D4C29836C087
:100446001A93A981BA81ED91A983BA831E2FE03050
:1004560019F01A93E3DFF5CF1881239608958F9A42
:100466008E9A8D9ABF9AB89ABA9AB99AC098C29833
:10047600C1987880E881E058E093B501E881E054BE
:10048600E093B601E4E1F0E06ED4E0E386D48BD4E9
:100496008AD48FD4E0E281D48CD4E8E282D4E4E03A
:1004A60080D4E5E87ED4E6E07CD4A8DF21960895E2
:1004B6003DD884D4129606D83097F1F07FD481D4F3
:1004C6008F01309761F00230E0E01E07A0F0F801DE
:1004D60031978F01AA81BB811496ED93FC936ED45C
:1004E600129672D43197AC81A08368D4EBD7FF23E0
:1004F60012F064D469D405C061D4EFEFFFEFED9339
:10050600FC931BD82596089565D4E0E8EA83EFE3CB
:10051600EB830AD864D4EF3FAFEFFA0739F4E885E6
:10052600F9851ED4E6E6F0E05DD479C0EF3FAFE78B
:10053600FA0731F459D414D4E7E6F0E053D46FC087
:10054600AB85A73010F0E6E0EB871B8550D411F0A1
:1005560052D4FCCF5ED4DCD719F430E04CD41BC0A7
:100566003B855CD409F008F407C045D457D418F08D
:100576005FD463D4FBCF08C051D428F459D468D4CF
:100586006DD43150F9CF37D444D46DD467D446D422
:1005960010F04ED452D410E0EB85E11700F169D487
:1005A6006DD461D4A3D763D2EC83FD836E837F833E
:1005B6003FD4B8D6A6D50E2F67D46DD4FF276627AD
:1005C6007727D8D556D460D633D4D8D347D4E12F9D
:1005D6001F5FE03009F758D4EEE2EC93DDCF60D42C
:1005E6003197AA85A08330302CF43195A885B9853A
:1005F600EDE203C0A885B985EBE2EC9351D450D463
:1006060054D41AD7E05DDB01EC934AD44ED43ED7DE
:10061600E05DDB01EC93A885B985E0E0EC938BD730
:1006260060960895EF9761977DD710E0FE01E85A2E
:10063600FF4F0190F081E02DE887F987FE01EA5A25
:10064600FF4F0190F081E02DEE83FF8333D4E0E08D
:10065600F0E0ED93FC93DE01A45ABF4FB5D331977A
:10066600E4912E2FE03009F4A2C1E12FE03031F4FD
:10067600253211F411E001C020D498C1E130B9F45B
:10068600253211F41AD491C112E0E0E0ED8B00E0BE
:100696002D3211F401E08AC12B3219F4EBE2ED8B15
:1006A60085C1203219F4E0E2ED8B80C102C0E23050
:1006B60039F450E013E0203311F4006877C102C02A
:1006C600E33091F4203310F02A3308F007C0AAE093
:1006D6005A9F502DE22FE0535E0F68C140E02E3244
:1006E60011F414E063C10FC0E43099F4203310F024
:1006F6002A3308F008C00062AAE04A9F402DE22F84
:10070600E0534E0F53C12C3619F4026015E04EC16A
:1007160003C0E53009F04AC1E22FE33639F4D5D3F8
:10072600DBD3D3D3A481AA93DED33FC1E53411F042
:10073600E53609F402C0E636A1F5DCD3E0D3C6D629
:10074600E5D3E9D3AD85AA2322F0AD89AB3231F0EA
:1007560011C0E3D3A3D4DAD3EDE2ED8B07FF04C0D7
:10076600ED89EA93C0D306C03AD33196DBD33197ED
:10077600AD89A08305FF46E0263641F4CED3B6D632
:100786004A93EB89FC89ECD268D208C0C6D3AED6B0
:100796004A932A93EC89FD89E3D2B6DEABD3C5D35F
:1007A60018C0E33729F4B7D3C5D3BCD3BED30AC028
:1007B600E037A1F4B0D3BED3B5D311D3D1D242D250
:1007C6001E2F08600F77403011F0411708F001C066
:1007D600142F40E0E0E0EC8B30E05EC0E43611F030
:1007E600E93611F4046002C0E53791F4EAE0EC8BD7
:1007F60001FF07C0E0E0FAEC6AE97BE39DD31AE06B
:100806001FC0E0E1F7E260E070E096D315E018C0A3
:10081600E83511F4086003C0E83709F0C6C0E0E126
:10082600EC8B01FF07C0E0E0F0E060E070E184D30C
:1008360018E006C0E0E0F0E160E070E07DD314E08F
:10084600403011F00F7701C041E001FF05C063D3CE
:1008560056D314963BD60AC002FF04C05CD36AD3B3
:10086600D8D504C058D366D366277727EA87FB878F
:100876006C877D8702FF0FC0AD85AA232AF44DD36E
:10088600BAD544D3EDE2ED8BED89E03019F01F5F68
:100896004F5F01C00B7F342F00FD13C0151710F4F6
:1008A600351708F00EC007FF08C002FF04C00B7F13
:1008B6002D89115001C020E301C020E2FED2515023
:1008C600EDCF141780F4006102FF05C03AD309F09A
:1008D600515011504150E0E3EA9305D3503009F0EE
:1008E60051504150EECF312FEC89E030A1F4303039
:1008F60089F003FF04C073D2259114D305C0AE85D9
:10090600BF852D91AE87BF87D8D2503009F05150A0
:100916003150EDCF41C028D394D52E2F2A3030F058
:1009260003FF02C0295C01C0295A01C0205D04FDF5
:100936001DC0213348F421D3A130E0E0BE07E0E03A
:100946008E07E0E09E0709F40BC0431740F45317E7
:1009560010F000FF01C00EC020E207FF07C020E331
:10096600006102FF03C0EDD209F05150A6D250300B
:1009760009F051503150F8D295D5C8D2EC89FDD244
:10098600FF27662777275DD5D7D2E889F9896A894F
:100996007B89BED509F0BFCF00FF07C0503029F0D4
:1009A6005150E0E2EA939FD2F9CF10E054CE82D2C2
:1009B60089D5BFD5EF966F960895FF92F82E2697A4
:1009C600B3D5E0D2309719F4EFEFFFEF1DC0DE018B
:1009D60016960DD58D01D6D2EE83FF83E0E0E8872B
:1009E600E987DE011A9603D56DD5BAD11A930A9313
:1009F600EBE5F2E0B5D1FE013A96B2D113DE9F01E6
:100A060059D2E0E0EC93F90196D52A96FF90089525
:100A16007B816A81F981E88177FB770F67FD7160D9
:100A2600972F9E5781F078F0983190F4AA27BB272C
:100A3600882708948795B795A7959A95D1F7EA23BD
:100A4600FB23682305C0E8947727EE27FF27662750
:100A56006F77769508F4606877F9A991B9918991CD
:100A66009991EA17FB076807790797FB08958FD2D4
:100A76003DD5CEDF36D511F48AD203C0EEF787D244
:100A860088D224960895249751D589D245D52CF03D
:100A9600EFEFFFEF6FE77FEF57C086D227D5EDB7B1
:100AA600FEB731975DD11F930F93D7D20F911F9148
:100AB60080D275D2E3EFF4E065E37FE378D430F4D7
:100AC60073D26DD291D375D2015010406DD261D2DE
:100AD6007F936F93FF93EF9367D2A0E0B0E080E837
:100AE6009FE382D3AF91BF918F919F911BD466D222
:100AF600A6E2B2E485E69FE3C7D34AD1EEE4F1E18C
:100B060064E570E43BD14BD2BFD37F936F93FF93E1
:100B1600EF935DD2ADE4B1E184ED9FE35ED3AF9197
:100B2600BF918F919F91FED37F936F93FF93EF9326
:100B3600F80152D2A8E1B2E781E39FE3A5D3AF91D2
:100B4600BF918F919F9150D3F8D42A9608952897F4
:100B5600EDD445D2E0E5FCEA6EEA72EC28D428F43E
:100B6600E0E0F0E060E070E055C0D7D1D1D411F4F8
:100B76003BD250C034D2E8E1F2E761EB72E417D41D
:100B860009F008F405C0EFEFFFEF6FE77FE742C01B
:100B960026D2EBE3FAEA68EB7FE376D3B7D1BDD191
:100BA600A5D465DFB0D28F01F80119D215D2E6D0EF
:100BB600EFD0E0E0F0E060E07FE3E0D0FFD1ADE62B
:100BC600BCE48CE69DE360D3A6EAB3EE86EE90E441
:100BD6000BD3E5D159D3EDD1FAD1A8E2BDE886EA27
:100BE60091E402D306D2E0D109D2FED2A3EFB4E05B
:100BF60085EB9FE349D37F936F93FF93EF93CFD119
:100C0600E6D1EBD2AF91BF918F919F91AED01A935F
:100C16000A9336D292D42E960895E991F991A99124
:100C2600B991CD0105900D920020E1F7FC010895E0
:100C3600A991B991EE27FF276D91662311F03196A0
:100C4600FBCF0895AA27BB27E991F99105900020CB
:100C560011F01196FBCFFD010895BCD0E0E0EA83C8
:100C6600EFE3EB8363D4EB85FC85EF3FAFEFFA0749
:100C760029F4C9D1EEE6F0E0B5D06CC0EF3FAFE79E
:100C8600FA0729F4C0D1EFE6F0E0ACD063C0AC853A
:100C9600AA2332F4BBD102D2BED1C2D1EDE2EC938B
:100CA600A885A73010F0E6E0E8871885A0D021F0E7
:100CB600A5D1E4D09ED1FACFB9D196D2ACD110E06D
:100CC60093D197D1B3D173D360F098D1C1D091D1DC
:100CD6001F5F173228F097D1E3E7F0E083D03AC0E0
:100CE600F1CF103021F49CD1E0E3EC9316C07FD015
:100CF600A1F084D1C3D0B7D0F9D3B9DE7AD196D1D9
:100D060011D3FFD10E2F8CD1C6D049D077D164D163
:100D1600BBD292D133D07FD1EACFE885E030B1F0B3
:100D26007FD1EEE2EC93E885E150E887EF5F71F062
:100D360083D18ED070D16AD1E4D10E2F71D1ABD0D0
:100D46002ED07AD149D11AD066D1EDCFAE81BF81EE
:100D5600E0E0EC93F2D32D960895E0E0EA9308954F
:100D6600FA93EA930895FCDF6CC1DCD2BFD30895F1
:100D7600A0E0B0E080E89FE3D5D20895BCD32DD2A1
:100D860008952497E0E0E883E983EA83EB830895F6
:100D9600DF01CB010895A5D30895EA93F4CAF0E0E4
:100DA6000895EA9314CB88EC90E00197F1F7E0E31D
:100DB600F4CF88EC90E00197F1F70895AA81BB8102
:100DC600089514967FD30895ED91FD913196FE9383
:100DD600EE9308952497E0E0E883E9830895EE858D
:100DE600FF850895BDDF19CFE885F9850895E12FC0
:100DF6001150E0300895AC81BD818E819F81E0E085
:100E0600F0E060E271E440D2EC83FD836E837F8381
:100E16000895EC85FD856E857F850895EC81FD81BD
:100E26006E817F81AC85BD858E859F85C0D20895F4
:100E3600AC85BD858E859F850895EDECFCEC6CEC4C
:100E46007DE322D2EC87FD876E877F873F5F08951B
:100E5600E0E0F0E060E271E417D20895EC87FD87E8
:100E66006E877F870895A0E0B0E080E09FE3BCD165
:100E76000895AC81BD818E819F810895EDECFCECD7
:100E86006CEC7DE301D20895A885B9851196A887F3
:100E9600B98711970895E02FE05DEC93E02F089550
:100EA600A3DF3196E887F98708953197BF01A32F0D
:100EB600EAE00895AE81BF8108952A93EF81F8850F
:100EC6004FDFEB85FC8509950895FE01E65AFF4F35
:100ED6000190F081E02D08953497DE01A65ABF4FA8
:100EE600ED93FC930895EF81F8853ADFEB85FC8559
:100EF60009950895FE017696EE87FF870895DE012F
:100F0600A65ABF4F0D90BC91A02D0895EA87FB8786
:100F16006C877D870895D9DFDFCFEA85FB856C85F1
:100F26007D850895EE87FF87089559DF19DF80DEF6
:100F36001E2F0895E4DF45CFE88BF98B6A8B7B8BF8
:100F460008950B7FED89EA93FE01E95AFF4F019060
:100F5600F081E02D05DFFE01E55AFF4F0190F0819B
:100F6600E02D099550300895E889F9896A897B89C9
:100F7600AA85BB858C859D850895A889B9898A89A6
:100F86009B890895DE011C9632D29CD20895A4D284
:100F96000895A0E0B0E080E89FE31FD10895AE81F8
:100FA600BF81888599850895EE81FF816885798559
:100FB6000895EE83FF83688779870895FADFF4DF63
:100FC600EEDF62D1EA83FB836C837D830895EA8139
:100FD600FB816C817D8108951CD2CCD00895AA85B1
:100FE600BB858C859D850895E0E0F0E060E87FE3B1
:100FF6000895EA83FB836C837D830895AA81BB8170
:101006008C819D810895EE81FF81AACEE985FA85BE
:101016006B857C850895E987FA876B877C870895B9
:1010260049DF1196AE83BF8311970895D0DFA98556
:10103600BA858B859C850895A985BA858B859C85FF
:101046000895E991F991309639F080ED97E001978E
:10105600F1F7A8953197C9F70895A991B991E99142
:10106600F9916991799177FB660F771F88277E57EB
:10107600880B7D938C937EE7769567957EF0089531
:10108600A991B991E991F9916991799177FB660FE7
:10109600771F7A0F769567950EF008953097604022
:1010A600704009F070580895552342F4503811F4F1
:1010B600E0FF04C03196691F791F6BF050E857278F
:1010C60011F45F93CFC05F3F31F0660F000C579568
:1010D6006795752F08955F9300200AF0CFC0C8C0AA
:1010E60050E8192E1522880F991F9527550F8795B9
:1010F60050E8072E0522660F771F7527550F67954F
:101106000895689401C0E8945F93F2DF703818F090
:101116007F3F08F4A7C056E1571BAAF451955830F3
:101126000EF4593030F0EFEFFFEF6FEF7FE777F90E
:101136001AC077275523B9F0EE0FFF1F661F771FDA
:101146005A95D1F710C07727583028F0EF2FF62F91
:10115600672F5850F9CF552331F076956795F79557
:10116600E7955A95D1F700200AF445D15F91089585
:10117600689401C0E894309760407040B1F0002454
:1011860026F0772312F4009436D1172E7EE1112033
:1011960032F07A95EE0FFF1F661F111CF9CFEF2F65
:1011A600F62F612D5F938ADF5F9108954F93AF010C
:1011B600FD01DA01AB01BC01CA01402D012C142E40
:1011C6004F910895EA0FFB1F681F0895E095F0956B
:1011D6006095EF5FFF4F6F4F08955F9381DF903803
:1011E60071F150E8152604C05F937ADF903839F123
:1011F600703821F1572F591B2BF112F4D7DFFACF94
:10120600583118F0AA27BB278827583028F0AB2F6B
:10121600B82F88275850F9CF552329F08695B795CA
:10122600A7955A95D9F7502D512572F0CBDF38F492
:101236006795F795E795739513F420C0B7DF3EDF02
:101246005F910895D8F7FBCFEA1BFB0B680B51F0B3
:1012560010F40094BBDF662392F3EE0FFF1F661FA8
:101266007A95CBF7EE27FF27662777275F910895B4
:10127600EFEFFFEF6FE77FEF5F910895EFEFFFEF7F
:101286006FE77FE75F9108955F932ADF703851F328
:10129600903841F301240894791F23F41CF30020AD
:1012A6003AF3ECCF0F921F932F933F934F9311274F
:1012B60022279927689FA0018F9F302D410D591F26
:1012C6006B9F300D411D591F8E9F27D0BF9F25D084
:1012D6006A9F23D0BE9F1DD0AF9F1BD0AE9F110D1E
:1012E600291F391F491F591FE32FF42F652F522F2E
:1012F6004F913F912F911F910F9066232AF0550F22
:10130600EE1FFF1F661F02C073954BF2CDDE5F9185
:101316000895100D211D391F02C0200D311D491FD2
:10132600591F08955F93DCDE703821F411200AF40A
:101336009FCFA4CF903809F495CF01240894970B3A
:101346001BF4D4F30020F3CF792F1F932F933F93F1
:101356004F9311241127222733274427552790E23C
:10136600AE17BF078607410730F0AE1BBF0B860BD3
:10137600410B089401C08894551F221F331F111C6E
:10138600AA1FBB1F881F441F9A9551F7F901612DAB
:101396004F913F912F911F91662332F0550FEE1F0B
:1013A600FF1F661F7A9543F27FDE5F9108959923AA
:1013B6009AF0772342F0971748F029F4AE17BF0743
:1013C600860720F031F098948894089598940894AC
:1013D60008951894889408957723C2F7971798F379
:1013E600A9F7EA17FB07680788F399F3ECCF0024FF
:1013F600AF0DB01D0895F09560957095E195FF4F7E
:101406006F4F7F4F0895FE2FFF0FFF0B6F2F7F2F1C
:1014160008956F2F660F660B762F0895002498E0C7
:10142600AA0F001C0E1A10F40E0E01C0A1609A95A8
:10143600B9F7EA2FA02D089539D0F0DF0EF4E19523
:1014460008953F934F935F93002411244427552713
:1014560030E2AA0FBB1F881F991F001C111C441FD6
:10146600551F0E1A1F0A460B570B28F40E0E1F1E89
:10147600461F571F01C0A1603A9559F7FD01BC01EF
:10148600D001CA015F914F913F910895E894A7FF5B
:1014960002C0A1956894E7FDE195C0DFEA2F0EF43E
:1014A600E1950895CEDFFD01BC010895E894E7FFBC
:1014B60002C0E1956894A7FF04C0A19500F80394C3
:1014C60000FA0895ED91FC9111970895ED91FD9123
:1014D6006D917C9113970895E881F9816A817B81EA
:1014E6000895E883F9836A837B8308957A936A93E0
:1014F600FA93EA930895182E862F612D192E972FA9
:10150600712D1B2EBF2FF12D1A2EAE2FE12D089512
:10151600309760407040089500240A160B060806AE
:10152600090608955A934A933A932A931A930A936B
:1015360008955D814C813B812A8119810881089536
:00000001FF
