:1000000002062AE51B240FF8E6051B22780C3007B0
:1000100002780FE475F0011205680204DF2000EB9E
:100020007F2ED2008018EF540F2490D43440D4FF98
:1000300030040BEF24BFB41A0050032461FFE51C09
:100040006002151C051FE51F7002051E30070D78A4
:100050000CE475F001120568EF0204F80205EE7475
:1000600003D2078003E4C207F51B8B0C8A0D890EAF
:10007000E4F51CF51EF51FE51C60077F2012003E0D
:1000800080F5751DFFC201C200C202C203C205C2D3
:1000900006C20812000CFF700D3007057F00120029
:1000A0004FAF1FAE1E22B4255FC2D5C20412000C92
:1000B000FF24D0B40A00501A75F00A781C30D50518
:1000C00008B6FF0106C6A426F620D5047002D203A6
:1000D00080D924CFB41A00EF5004C2E5D204020242
:1000E0004FD20180C6D20080C0D20280BCD2D5805F
:1000F000BAD20580B47F2012003E2002077401B5F9
:100100001C0040F1120003FF12003E020077D208EB
:10011000D2068095120003FB120003FA120003F9C5
:100120004A4B700679207A037BFF20022EE51C6083
:100130002A7E008E8275830012053B60060EEE65F6
:100140001D70F0C2D5EBC0E0EAC0E0E9C0E0EE12FD
:100150000296D0E0F9D0E0FAD0E0FB1204DFFF60B5
:10016000AAEBC0E0EAC0E0E9C0E012003ED0E02423
:1001700001F9D0E03400FAD0E0FBE51D0460DCD5E5
:100180001DD980877BFF7A027992D202809C7910F8
:1001900080027908C206C2088008D2D5790A800494
:1001A000790AC2D5E51D047002F51DE4FAFDFEFFD3
:1001B000120003FC7B08200113120003FD7B1030AA
:1001C000000A120003FE120003FF7B20EC3382D5ED
:1001D00092D55013C3E43000069FFFE49EFEE42056
:1001E00001039DFDE49CFCE4CBF8C201EC700CCF54
:1001F000CECDCCE824F8F870F38017C3EF33FFEED0
:1002000033FEED33FDEC33FCEB33FB994002FB0F87
:10021000D8E9EB300105F8D0E0C448B201C0E00AEB
:10022000EC4D4E4F78207B0070C2EAB51D0040BCFB
:10023000C0E0120298D0F0D0E0200104C4C0E0C4B5
:10024000B201C0F0120027D0F0D5F0EB0200771217
:100250000578011453018E5800E54C00E1420192EB
:100260004F019A44019A4900FA4301A0550184467E
:1002700001844501844703405000E92D00ED2E0123
:10028000102B00F123010E2003292A00A9480000A9
:1002900001083F3F3F00790AA2D520031430050929
:1002A000B910020404B9080104A2D52006025001C5
:1002B000042002689202B51C005034C0E07F203058
:1002C00003197F30A20272067205500F1202EFC2AC
:1002D00002C206C205C2087F30800F300503E9C0A4
:1002E000E012003E300503D0E0F9D0E0B51CCC3080
:1002F00005177F30B9100C12003E7F583004077F7D
:10030000788003B9080312003E3002057F2D0200F9
:100310003E7F202008F87F2B2006F322920280CF18
:10032000286E756C6C2900D2011200033001F8C2EE
:1003300001781C30D50108F60200A92D5043495818
:100340001200032403B405004001E490033B931220
:10035000002F743A12002FD203751C0402018E8FF5
:100360000C8D0D8A0E8B0FAE0EAF0F7C007D0C1224
:10037000050AEF250DFFEC3EFEEF25E0FDEE33FC18
:1003800074B42DF582744A3CF583E493F51D740131
:1003900093F51EAE1DAF1EEF541FF519AE1DAF1E17
:1003A000EF7805CEC313CE13D8F9540FF51AAE1D4E
:1003B000AF1EEEC3135401241DF51BAE1DAF1EEE80
:1003C00013135401F51C74B62DF582744A3CF58361
:1003D000E493F51D740193F51EAE1DAF1EEF541F7F
:1003E000FDAE1DAF1EEF7805CEC313CE13D8F95462
:1003F0000FFFE519651B7061ED6402705CE50CB4DC
:10040000010DAB10AA11A912E5191204F8802AE512
:100410000CB41F15AB10AA11A91274011204F8AB89
:1004200013AA14A915EF0204AAE50C14AB10AA1123
:10043000A9121204F8E51C600AAB13AA14A915E569
:100440001A8067E51AB40C047F018004E51A04FFE2
:10045000AB13AA14A915EF8051E50C251914AB10A4
:10046000AA11A9121204F8AB10AA11A9121204DFE2
:10047000FFD3951B500AAB13AA14A915E51A802ABD
:10048000AB10AA11A912C3EF951B1204F8E51A04C8
:10049000C3951CAB13AA14A9151204F8AB13AA1424
:1004A000A9151204DFB40D0574011204F8AB13AAE8
:1004B00014A9151204DFFFE50DC39F400DAB16AA6A
:1004C00017A918E50E850FF08011E50F24FFFFE551
:1004D0000E34FFAB16AA17A9188FF012051C22BB09
:1004E000010689828A83E0225002E722BBFE02E3F2
:1004F0002289828A83E49322BB010689828A83F05F
:10050000225002F722BBFE01F322EF8DF0A4A8F0E7
:10051000CF8CF0A428CE8DF0A42EFE22BB010A8938
:10052000828A83F0E5F0A3F0225006F709A7F019BC
:1005300022BBFE06F3E5F009F31922BB010CE582AC
:1005400029F582E5833AF583E0225006E92582F811
:10055000E622BBFE06E92582F8E222E58229F58241
:10056000E5833AF583E49322FAE6FB0808E6F925E9
:10057000F0F618E6CA3AF622D083D082F8E49370F7
:1005800012740193700DA3A393F8740193F58288FC
:1005900083E4737402936860EFA3A3A380DF75986C
:1005A00050438920758DFDD28ED29975100075113A
:1005B000007512087513007514007515097516007D
:1005C00075170075180A7B337A087D0C7F1F12039C
:1005D0005F7BFF7A067915750F008508107511008D
:1005E000850912850A13850B1412006580FEEFB48D
:1005F0000A07740D1205F9740A309811A899B813F6
:100600000CC2983098FDA899C298B811F63099FD9F
:10061000C299F599224C756E617220446174653AF5
:100620002025752F25752F257500787FE4F6D8FDD8
:1006300075812102059E1B79099A1A3A125B187B73
:10064000109D1ABE18E21304192413461B6619875D
:1006500002291A4710681A89108A1AAB18CC10EEB2
:100660001B0F11301B51197203941A321253187355
:10067000129518B51AD710F81919133B195B1B7D81
:1006800000211A3D125E188112A218C21AE4110547
:100690001926134819681B8A082B1A4B104C1A6D1F
:1006A000128E18AE1AD010F11B1211331B5419758B
:1006B0000397183512571877129918B91ADB12FCDC
:1006C000191C133E196119820224184212641884FD
:1006D00010A61AC71AE810E91B0A132B194B1B6D39
:1006E000018E1A2D104E1A6F109018B11AD310F4F3
:1006F0001B1513361B5619770B991A381059187A8F
:10070000129C18BC18E111021B2311441B651B86A7
:10071000022718451267188712A918A918CB12EDDD
:10072000190D132F194F1B7103921A3010511A72A1
:1007300010931AB418D510F71B1811391B5A197BCE
:10074000039D1A3B105C1A7D129E18C118E2110419
:100750001B2511461B6719880A2A1849126B1A8B28
:10076000108C1AAD18CE12F01910133219521B74D6
:1007700001951A3410551A7610971AB81AD910FA2A
:100780001B1B113C1B5D19810022184110621A834A
:1007900010A41AC518E613081B2811291B4A196B47
:1007A000038D182B124D186D108F1AB018D112F33B
:1007B0001B13133419541B7609971A3710581A79DA
:1007C000109A18BB1ADD11011B2111421B631B84F7
:1007D00000251A4410651A8610A718C81ACA10EB0B
:1007E0001B0C112D1B4E1B6F0390182E12501870EE
:1007F000129218B218D412F6191611381B591B7A16
:10080000039B1839125B1A7B109C1ABD18E1130365
:10081000192311451B661B8708281A4812691A8973
:10082000108A1AAB18CC10EE1B0F113019511B7324
:100830000394183212541A7410951AB618D712F974
:100840001919133B195B1B7D00211A3D10611A8198
:1008500012A31AC318E413061926134819681B8A31
:10086000002B1A4A104B186C128E1AAE18CF12F1C8
:100870001B1111321B5319740B9618351257187728
:1008800010991ABA18DB12FD1B1D11411B61198248
:10089000022418421264188410A61AC718C812EA53
:1008A000190A132C1B4C1B6D018E1A2D104E1A6F3A
:1008B000109018B11AD310F4191513371B571B7861
:1008C00001991A3812591879129B18BB18DD1301B7
:1008D000192213441B6419850A271A4612671887C0
:1008E00012A918A918CB12ED190D112F1B501B714D
:1008F00001921A3112521872129418B41AD610F7C3
:100900001B181139195A1B7C019D1A3C125D187D68
:1009100012A11AC11AE311041B2511461B6719887D
:10092000002A1A49106A1A6B128C18AC1ACE12EFF0
:10093000190F133119511B73099418341256187674
:10094000129818B81ADA12FB191B133D1B5D198196
:10095000002218411062188312A518C51AE7110861
:100960001B29134A1B6A196B038D182B124D186D26
:10097000108F1AB018D110F31B1413351B551976AC
:1009800003981A3610571A78109918BA1ADC10FD05
:100990001921134219621B840A251A4410651A860C
:1009A00010A718C81ACA10EB190C132E194E1B7079
:1009B00003911A2F10501A71129218B218D412F60D
:1009C000191611381B59197A039C1A3A105B1A7CB4
:1009D000129D18BD1AE11303192311451B661987CF
:1009E00002291A4710681A8912AA18AA1ACC10EDFF
:1009F0001B0E112F19501B7209931A3310541A75BC
:100A0000129618B61AD810F91B1A133B195B1B7DE6
:100A10000021183D12611A8210A31AC418E51307A9
:100A20001B27134819681B8A002B1A4A104B186C95
:100A3000128E18AE1AD010F11B12133319531B75F6
:100A4000039618341256187610981AB918DA10FC52
:100A50001B1D133E19611B820A231842126418845D
:100A600010A61AC718E810EA1B0B112C1B4D1B6EA1
:100A7000038F1A2D104E1A6F109018B11AD310F45C
:100A80001915133719571B79039A1A3810591A7AFE
:100A9000109B1ABC18DD13011922134419641B861C
:100AA0000227184512671A8710A81AA918CA12EC4B
:100AB000190C112E1B4F19700B92183112531A7307
:100AC00010941AB51AD610F71B181139195A1B7C35
:100AD000019D1A3C105D1A7E12A21AC218E313057A
:100AE000192513471B671988002A1A49106A1A6BBF
:100AF000108C1AAD18CE12F01B1011311B521B7343
:100B00000194183312551875129718B718D912FB9B
:100B10001B1B113C1B5D1B7E0A21184110621883B0
:100B200012A518C518E713091909132B1B4B1B6CC9
:100B3000018D1A2C124D186D108F1AB018D110F3A8
:100B40001B1411351B561B7703981836125818784A
:100B5000129A18BA1ADC10FD192111421B631B846A
:100B600000251A441265188512A718C71AC910EA79
:100B7000190B132D194D1B6F09901A301251187152
:100B800012931AB318D412F6191611381B59197A80
:100B9000039C183A125C187C129E1ABE1AE21103CA
:100BA0001B2411451B6619870229184712691889E9
:100BB000128B18AB1ACD12EE190E133019501B728E
:100BC00001931A3210531A7410951AB618D712F9E5
:100BD0001919133B1B5B197C0B9E183D12611A827D
:100BE00010A318C41AE611071B2813491B69198A98
:100BF000022C1A4A106B186C128E18AE18D012F212
:100C0000191213341B541B7501961A351256187697
:100C100010981AB918DA10FC1B1D11411B611B83B7
:100C200002241A4210631A8410A51AC618E710E9A4
:100C30001B0A112B1B4C196D0B8F1A2E124F186F9C
:100C4000129118B11AD310F41915133719571B79CB
:100C5000019A1A39125A187A129C1ABC18DD13021A
:100C60001922134419641B8600271A4610671A8834
:100C700012A918A91ACB10EC1B0D112E1B4F1970BD
:100C80000392183012521872129418B41AD612F72E
:100C90001917133919591B7B099C1A3C105D1A7ED0
:100CA00010A21AC31AE411051B26134719671B89E2
:100CB000002A1A49106A1A8B108C18AD1ACF10F03E
:100CC0001B1113321B5219730395183312551875E3
:100CD000129718B718D912FB191B133D195D1B8108
:100CE00002221A3E1262188212A418C418E61308CF
:100CF0001908132A194A1B6C0B8D1A2C104D1A6EE9
:100D0000108F1AB018D110F31B14113519561B7817
:100D100003991A3710581A79129A18BA1ADC10FD6A
:100D20001921114219631B850226184412661A867E
:100D300010A71AC818C912EB190B132D194D1B6FE8
:100D400001901A2F10501A7110921AB31AD410F57C
:100D50001B1611371B5819790B9B183A125C187C1B
:100D6000129E18C118E213041B2411451B66198733
:100D70000229184712691889108B1AAC18CD12EF86
:100D80001B0F11301B511B7201931A3210531A742E
:100D9000109518B61AD810F91B1A113B1B5C1B7D55
:100DA000039E183C125E188110A218C31AE51106A2
:100DB0001B2711481B691B8A0A2B184A126C186CD6
:100DC000128E18AE18D010F21B1311341B551B765F
:100DD0000397183512571A7710981AB918DA10FCB9
:100DE0001B1D11411B621B8300241A4312641884CB
:100DF00012A618C61AE810E91B0A112B194C1B6E13
:100E0000038F182D124F1A6F10901AB118D212F4C6
:100E10001914133619561B7809991A39105A1A7B66
:100E2000109C1ABD1ADE13021922134419641B8682
:100E3000002718461268188812AA1AAA18CB12EDB1
:100E4000190D132F1B4F19700392183010521A737B
:100E500010941AB518D612F81B1811391B5A1B7B9F
:100E6000019C1A3B105C1A7D10A11AC218E31305ED
:100E7000192513471B671B8808291A49106A1A8B02
:100E8000108C18AD18CF12F1191113331B531B74AA
:100E900001951A3412551875129718B718D910FB06
:100EA0001B1C113D1B5E1B8102231A41126218821A
:100EB00012A418C418E613081908112A1B4B196C40
:100EC000038E1A2C124D186D128F18AF1AD110F212
:100ED0001B13113419551B7709981A3812591879B0
:100EE000129B1ABB18DC12FE1921114219631B85D3
:100EF00000261A4510661A8712A818C81ACA12EBDB
:100F0000190B132D194D1B6F0190182F12511871C9
:100F1000129318B31AD512F6191613381B581979EB
:100F2000039B1839105B1A7C109D1ABE1AE211033C
:100F30001B2413451B6519860A281847126918894E
:100F4000108B1AAC18CD10EF1B1013311B511972F6
:100F500003941A3210531A74109518B618D812FA4E
:100F6000191A133C1B5C197D02211A3D125E18816F
:100F700010A218C318E513071927134919691B8B09
:100F8000022C1A4A104B1A6C108D1AAE18CF10F1A1
:060F90001B1211331B547B
:00000001FF
